:020000040800F2
:100000001008002035020008411E0008AF17000844
:100010000D1E00082B040008072200080000000045
:10002000000000000000000000000000451E000865
:100030002D04000800000000431E0008471E0008B1
:100040004F0200084F0200084F0200084F0200084C
:100050004F0200084F0200082F0400083D0400086A
:10006000430400084F0200084F0200084F02000836
:100070004F0200084F0200084F0200084F0200081C
:100080004F0200084F0200084F0200080000000065
:100090000000000000000000000000004F02000807
:1000A0004F0200084F0200084F0200084F020008EC
:1000B000DD1E0008E91E00084F0200084F0200087C
:1000C0004F0200084F0200084F0200084F020008CC
:1000D0004F0200084F0200084F0200080000000015
:1000E000350400084F0200084F020008000000001D
:1000F0000000000000000000000000004F020008A7
:10010000000000004F020008F51E00084F02000822
:1001100000000000000000000000000000000000DF
:100120004F0200084F0200084F0200084F0200086B
:100130004F02000800000000000000000000000066
:100140000000000000000000000000004F02000856
:100150004F0200084F0200084F0200084F0200083B
:100160004F0200084F0200080000000000000000DD
:10017000000000000000000000000000000000007F
:10018000000000004F020008000000000000000016
:100190004F02000800F002F800F03CF80AA090E8D6
:1001A000000C82448344AAF10107DA4501D100F032
:1001B00031F8AFF2090EBAE80F0013F0010F18BFC3
:1001C000FB1A43F00103184750340000703400005C
:1001D000103A24BF78C878C1FAD8520724BF30C873
:1001E00030C144BF04680C60704700000023002445
:1001F00000250026103A28BF78C1FBD8520728BF37
:1002000030C148BF0B6070471FB503F0F7F91FBD41
:1002100010B510BD00F0CFF81146FFF7F5FF03F061
:10022000CBF800F0EDF803B4FFF7F2FF03BC00F0E9
:10023000F5F800000948804709480047FEE7FEE757
:10024000FEE7FEE7FEE7FEE7FEE7FEE7FEE7FEE786
:1002500004480549054A064B70470000CD1E0008BA
:100260009501000810020020100800201004002052
:100270001004002053EA020C00F069802DE9F04BD5
:100280004FF00006002B1FBFB3FA83F503FA05F405
:1002900024FA05F65E4012BF1643B2FA82F502FA5E
:1002A00005F4C5F120051EBF22FA05FC44EA0C0442
:1002B000203556EA044C4FEA144418BF641C4FF032
:1002C00000084FF00009904271EB030C39D300296C
:1002D00019BFB1FA81F701FA07F6B0FA80F700FA10
:1002E00007F6C7F120071EBF20FA07FC46EA0C06F6
:1002F0002037B6FBF4FCA7EB0507103F07F01F0BF8
:10030000CBF120060CFA0BFB2CFA06F644BFB346E1
:100310000026202FA4BF5E464FF0000B5BEA060CC0
:1003200008BF4FF0010B19EB0B09ABFB027C48EB4C
:100330000608C01B06FB02CC0BFB03CC71EB0C01C7
:10034000C1E70B46024641464846BDE8F08B13B56F
:100350004FF000004FF00001AFF30080BDE81C40FB
:1003600070474FF0000200B5134694469646203978
:1003700022BFA0E80C50A0E80C50B1F12001BFF45E
:10038000F7AF090728BFA0E80C5048BF0CC05DF8C4
:1003900004EB890028BF40F8042B08BF704748BF12
:1003A00020F8022B11F0804F18BF00F8012B704786
:1003B000704770477047754600F02CF8AE46050050
:1003C0006946534620F00700854618B020B5FFF770
:1003D0003FFFBDE820404FF000064FF000074FF010
:1003E00000084FF0000B21F00701AC46ACE8C00953
:1003F000ACE8C009ACE8C009ACE8C0098D4670475C
:1004000010B50446AFF300802046BDE81040FFF76A
:100410000ABF000000487047AC01002001491820C5
:10042000ABBEFEE7260002007047FEE770470120E2
:1004300000F0ACB84FF4806000F0A8B8022000F0E3
:10044000A5B8042000F0A2B870B5054600F0A4F9E4
:100450004FEA000400F0A0F9001BA842FAD370BDD7
:100460002DE9F041474E484CC1074FF0020512D02C
:1004700001F0AAFF0746062000F0EEF960680128A7
:1004800002DD2A2F71D17AE020683118401C2060EB
:100490000F7038461FE0810707D56068002864D1D7
:1004A00001F0D0FF054607200DE0410724D5606824
:1004B00000285AD102F004F80546082000F0CCF9D3
:1004C000232D0ED0082000F0C7F921687018491CB0
:1004D00021600570284601F0E9F9BDE8F04101F01E
:1004E000A3BE0020206020213154401C1028FBDBDB
:1004F000BDE8F04101F05CB9010736D4C10634D43F
:10050000400532D561684FF08040012911D0616803
:10051000032905D06168042902D06168022924D129
:10052000A169491CA161406BE060A069C0071ED0B1
:1005300019E06169022918DAA169491CA161406BBF
:10054000E060A069C0070ED12069401C0BD0E068B4
:100550002169401A4B2806D36069401C60616069BC
:10056000022800D16560E0682061BDE8F081206963
:10057000401CF8D0E0682169401A6928F3D365600F
:10058000F3E700009C01002000000020044910B5A2
:100590000A68024202D00860FFF762FF10BD000047
:1005A000143C01402DE9F84FDFF8B8A100220124E6
:1005B00003254FF00F090AF1040BAAF1040E00BF46
:1005C0000B6804FA02F63340B34273D10F7907F097
:1005D0000307012F01D0022F16D187684FEA420886
:1005E00005FA08FC27EA0C07D1F80CC00CFA08FC45
:1005F0004CEA070CC0F808C04768B7430E79C6F349
:10060000001696403E4346600E79F643B6070DD07D
:10061000C768560005FA06FC27EA0C07D1F808C09F
:100620000CFA06FC4CEA070CC0F80CC00E7906F078
:100630000306022E10D1D60800EB8608D8F82060F9
:1006400057074FEAD76C09FA0CF7BE430F6907FA50
:100650000CF73743C8F8207006684FEA420C05FAD9
:100660000CF7BE430F7907F0030707FA0CF737437F
:1006700007604E6816F4403F6DD03B4E376847F434
:1006800080473760366822F0030706F480460096FC
:10069000364E07EB060CDCF8086897073F0F09FA9F
:1006A00007F826EA0806DFF8C880404503D14FF076
:1006B00000081EE04FE0DFF8BC80404502D14FF05B
:1006C000010816E0DFF8B080404502D14FF0020883
:1006D0000FE0DFF8A880404502D14FF0030808E0A2
:1006E000DFF89C80404502D14FF0040801E04FF054
:1006F000070808FA07F848EA0608CCF80888DAF884
:1007000000605746D1F804C09E435FEACC2C00D568
:100710001E433E60DBF800605F46D1F804C09E4394
:100720005FEA8C2C00D51E433E60DEF80060774601
:10073000D1F804C09E435FEA8C3C00D51E433E6066
:10074000084F083F3E68D1F804C09E435FEACC3CA6
:1007500000D51E433E60521C102AFFF431AFBDE8A5
:10076000F88F0000083C014044380240003001404E
:10077000000002400004024000080240000C024059
:10078000001002400069084000D0012070470AB103
:10079000816170470904FBE70148806870470000E9
:1007A000240000200248816802781144816070476B
:1007B000240000200B4810B5016841F4007101606D
:1007C000016841F480610160016841F48071016059
:1007D000032000F08DF8012000F006F800F024F866
:1007E000002010BD003C024070B50D4D04464FF492
:1007F0007A712878B1FBF0F00A490968B1FBF0F092
:1008000000F00AFB48B9102C07D200222146501EE6
:1008100000F04EF800206C6070BD012070BD00003B
:1008200024000020300000200A4808B5016841F487
:1008300080410160006800F4804000900548001F7E
:10084000016841F080510160006800F08050009024
:1008500008BD000044380240002809DB00F01F02F8
:10086000012191404009800000F1E020C0F8801291
:10087000704700280DDB00F01F0201219140400964
:10088000800000F1E020C0F88011BFF34F8FBFF36C
:100890006F8F7047002809DB00F01F020121914093
:1008A0004009800000F1E020C0F80011704700000E
:1008B000F0B40E4B1B680C46C3F30223C3F10705CB
:1008C000042D00D90425191D072901D2002300E0B9
:1008D000DB1E012606FA05F1491E214099409E4083
:1008E000761E16403143F0BC01F08EBC0CED00E0EA
:1008F000064900F0070208684FF6FF03184040EA77
:100900000220034A10430860704700000CED00E02D
:100910000000FA052DE9F0470E46050065D0DFF826
:100920001481D8F80000F7B200F00700B04207D2F7
:1009300088F80070D8F8000000F00700B04254D1E9
:1009400028683D4C810712D5400703D5206840F444
:10095000E05020602878000703D5206840F460400C
:1009600020602068A96820F0F00008432060287803
:10097000C0072DD0304968680839012812D00228F4
:1009800013D0032811D00968890700292DDA2168BE
:1009900021F0030101432160FFF7FEFE814641F291
:1009A000883A0EE009688903EFE709688901ECE7F6
:1009B000FFF7F2FEA0EB0901514502D90320BDE883
:1009C000F0872068696800F00C00B0EB810FEFD170
:1009D000D8F80010404601F00701B14207D907706E
:1009E000006800F00700B04201D00120E7E7287856
:1009F000400705D52068E96820F4E05008432060EE
:100A00002878000706D52068296920F4604040EA6C
:100A1000C100206000F018F82168084AC1F30311F2
:100A2000515CC8400649086006480068FFF7DCFED4
:100A30000020C4E7003C02400838024006360008A7
:100A40003000002028000020154810B5006810F084
:100A50000C02144813D01449042A0FD0082A0ED1CE
:100A60000F4C241F2268236802F03F025B0207D567
:100A70002068C0F38810A0FB010106E0084610BD05
:100A80002168C1F38811A1FB00010023FFF7F2FBED
:100A90002168C1F30141491C4900B0FBF1F010BDD0
:100AA000083802400024F40040787D012DE9F84F19
:100AB00004006ED02078DFF84C93C007A9F104053C
:100AC0004AD009F104000168C1F38101012908D06D
:100AD0000068C0F3810002280AD1D9F80000400262
:100AE00006D52868800337D560680028E1D033E058
:100AF0006068B0F5803F10D0B0F5A02F286810D006
:100B000020F480302860286820F480202860606805
:100B1000A8B1FFF741FE06460DE0286840F480309A
:100B2000F4E740F480202860F7E700BFFFF734FEC9
:100B3000801B642873D828688003F7D50CE0FFF782
:100B40002BFE064605E000BFFFF726FE801B64284B
:100B5000F0D828688003F7D42078DFF8AC828007CB
:100B60004FF0000A3ED5A748001D016811F00C0F98
:100B700008D00068C0F3810002280BD1D9F800002A
:100B8000400207D42868800716D5E068012800D104
:100B900012E033E1E068B8B10120C8F80000FFF7C7
:100BA000FBFD064605E000BFFFF7F6FD801B0228AF
:100BB000C0D828688007F7D52868216920F0F80098
:100BC00040EAC10028600DE0C8F800A0FFF7E4FD8E
:100BD000064604E0FFF7E0FD801B02281FD82868C6
:100BE0008007F7D42078000722D5864F87486169AF
:100BF000703771B101210160FFF7CEFD064604E0B8
:100C0000FFF7CAFD801B022809D838688007F7D58E
:100C10000EE0C0F800A0FFF7BFFD064605E082E049
:100C2000FFF7BAFD801B02287DD838688007F7D40B
:100C30002078400768D5DFF8CCB100270BF13C0BDA
:100C4000DBF80000C0000BD4DBF8001041F080514D
:100C5000CBF80010DBF80000012700F08050009076
:100C60006B4E3068C00510D4306840F4807030603E
:100C7000FFF792FD009005E0FFF78EFD0099401A06
:100C8000022850D83068C005F6D55E4EA0686C3694
:100C900001280FD00528306810D020F00100306006
:100CA000306820F004003060A068B8B1FFF774FD30
:100CB00000900FE0306840F00100F4E740F00400DD
:100CC0003060F7E7FFF768FD0099411A41F288307C
:100CD000814266D830688007F4D50EE0FFF75CFDEE
:100CE000009007E0FFF758FD0099411A41F2883063
:100CF000814256D830688007F4D42FB1DBF8001059
:100D000021F08051CBF80010A069C8B33D49091DFE
:100D10000968C1F3810102294AD00228504607D050
:100D2000C8F8600000E03CE0FFF736FD04463BE019
:100D30004746C8F86000FFF72FFD064605E000BFF4
:100D4000FFF72AFD801B02282BD828688001F7D4E2
:100D5000D4E907010843A16A2E4A490802EB014180
:100D6000626A41EA8211084394F82C1040EA01615A
:100D7000C9F8001001203866FFF70EFD044606E0B2
:100D80003EE000BFFFF708FD001B022809D82868D5
:100D90008001F7D534E000BFFFF7FEFC001B0228FE
:100DA00002D90320BDE8F88F28688001F4D427E039
:100DB0000128F7D0D9F80000E26900F480019142DF
:100DC0001CD1226A00F03F01914217D147F6C07151
:100DD000626A0140B1EB821F10D1A26A4FF0FF336B
:100DE00000F4403103EB5202B1EB024F06D194F80C
:100DF0002C1000F07060B0EB016F01D00120D1E742
:100E00000020CFE70438024000004742800E4742EE
:100E1000007000400000FFFF10B5401EB0F1807F61
:100E200001D3012010BD4FF0E02460610F21601755
:100E300001F0EAF90020A06107202061002010BD28
:100E40007047704710B590F83C20012A22D001224B
:100E500080F83C20CA688C6822F4407222434C68B7
:100E600022F4806222430C6822F4006222430C695F
:100E700022F4805222434C6922F400522243C96971
:100E8000002322F480420A4301684A6480F83C301F
:100E9000002010BD022010BD70B590F83C20012A42
:100EA0002CD0012480F83C40022280F83D200368C9
:100EB0005A689D6822F070060A6832435A60104BE7
:100EC00002689A420ED0B2F1804F0BD00D4B9A427D
:100ED00008D00D4B9A4205D00C4B9A4202D00C4BD5
:100EE0009A4204D1496825F080031943916080F843
:100EF0003D40002180F83C10084670BD022070BDC6
:100F0000000001400004004000080040000C0040C8
:100F10000040014010B5040003D094F83D0010B12A
:100F200007E0012010BD002084F83C00204600F0BE
:100F30001FF8022084F83D00211D206800F0E0FF2A
:100F4000012084F8460084F83E0084F83F0084F8CD
:100F5000400084F8410084F8420084F8430084F89B
:100F6000440084F8450084F83D00002010BD0000D6
:100F700010B586B0044614216846FFF7F2F92268DE
:100F800000212848B2F1804F14D027498A4237D136
:100F9000016841F0020101600068002200F00200D7
:100FA000059002211D20FFF783FC1D20FFF772FC36
:100FB00006B010BD026842F001020260006800F055
:100FC0000100059017481038026842F001020260E3
:100FD000006800F0010005904FF4004000900220EE
:100FE000CDE901010120CDE9031069460F48FFF763
:100FF000D9FA002211461C20FFF75AFC1C20D5E725
:101000000B498A42D4D1016841F0080101600068AF
:10101000002200F00800059002213220FFF748FC72
:101020003220C3E740380240000400400000024084
:10103000000C004070B5044690F83C0000250128E3
:1010400017D0012684F83C60022084F83D00206817
:10105000826822F0770222F47F428260086850287A
:1010600038D00DDC20284FD005DC90B3102811D1EA
:101070004AE0022070BD302846D040280AD13BE02B
:1010800060282FD070280DD0B0F5805F03D0B0F568
:10109000005F12D0012584F83D60002084F83C00F8
:1010A000284670BDCB68D1E90121206800F081FF9E
:1010B0002068816841F0770109E0CB68D1E901211E
:1010C000206800F076FF2068816841F480418160EB
:1010D000E1E719E0CA684968206801F01FF850216B
:1010E000206806E0CA684968206801F05FF860215E
:1010F000206800F068FFCEE7CA684968206801F000
:101100000DF840212068F4E7226801461046F0E718
:1011100070472DE9F041054690F83C0000260C464A
:10112000012810D0012085F83C0072B1042A1CD09F
:10113000082A2CD00C2A50D00126002085F83C002B
:101140003046BDE8F0810220FBE7D4E90012E368F5
:10115000286800F0F5FF2868816921F00C018161A1
:1011600028688169A26811430FE0D4E90012E3689E
:10117000286801F02DF82868816921F440618161B7
:1011800028688169A26841EA02218161D5E728685F
:10119000D4E9002C277B016A21F480710162C169C6
:1011A000036A21F0030141EA0C0121F0F00C390738
:1011B0004FF420674CEA116123F4206307EA02220E
:1011C0001A43C16102622868C16921F00C01C16142
:1011D0002868C169A268114328E02868D4E900277B
:1011E000E168036A23F480530362D0F81CC0036AE9
:1011F0002CF4407C4CEA07274FF6FF7C27F470471D
:101200000CEA013139434FF4204723F4204307EA25
:1012100002321A43C16102622868C16921F4406147
:10122000C1612868C169A26841EA0221C16184E7FD
:1012300010B5040003D094F83D0010B107E0012080
:1012400010BD002084F83C00204600F01EF802206B
:1012500084F83D00211D206800F052FE012084F832
:10126000460084F83E0084F83F0084F8400084F88B
:10127000410084F8420084F8430084F8440084F874
:10128000450084F83D00002010BD704770B504464D
:10129000006801694FF00005C943890715D4C1688A
:1012A000C943890711D4E91E016101202077206814
:1012B00080698007204602D0FFF72AFF04E000F093
:1012C000DBF8204600F08EF9257720680169C943D4
:1012D000490717D4C168C943490713D46FF0040103
:1012E0000161022020772068806910F4407F204649
:1012F00002D0FFF70DFF04E000F0BEF8204600F03A
:1013000071F9257720680169C943090716D4C168B6
:10131000C943090712D46FF0080101610420207746
:101320002068C0698007204602D0FFF7F1FE04E084
:1013300000F0A2F8204600F055F9257720680169F1
:10134000C943C90617D4C168C943C90613D46FF08D
:1013500010010161082020772068C06910F4407FE7
:10136000204602D0FFF7D4FE04E000F085F82046C6
:1013700000F038F9257720680169C943C90708D109
:10138000C168C943C90704D1891E0161204600F024
:10139000BBF920680169C943090609D4C168C9437A
:1013A000090605D46FF0800101612046FFF748FD72
:1013B00020680169C943490609D4C168C94349067F
:1013C00005D46FF040010161204600F0EFF920687C
:1013D0000169C94389060BD4C168C943890607D48A
:1013E0006FF0200101612046BDE87040FFF729BD84
:1013F00070BD000010B586B0044614216846FEF7A3
:10140000B0FF2368174C002117480222A34211D1D4
:10141000036843F001030360006800F001000590D9
:1014200090020090CDE901210120CDE90310694629
:101430000E4812E00E4CA34211D1036843F00203A0
:101440000360006800F002000590A0150090CDE94F
:101450000121CDE9031269460648FFF7A3F806B05B
:1014600010BD000000000140303802400000024082
:101470000008004000040240704770B5044690F830
:101480003C0000260D4601280FD0012084F83C00C6
:101490006AB1042A1DD0082A2FD00C2A3FD0012679
:1014A000002084F83C00304670BD022070BD2068EA
:1014B00000F092FD2068816941F008018161206897
:1014C000816921F004018161206881692A691143E1
:1014D00011E0206800F0A8FD2068816941F40061F6
:1014E00081612068816921F480618161206881695E
:1014F0002A6941EA02218161D2E7206800F0C0FD3B
:101500002068C16941F00801C1612068C16921F00A
:101510000401C1612068C1692A69114311E0206892
:1015200000F0DAFD2068C16941F40061C161206802
:10153000C16921F48061C1612068C1692A6941EAF9
:101540000221C161ACE710B5040003D094F83D005E
:1015500010B107E0012010BD002084F83C002046B7
:1015600000F01EF8022084F83D00211D206800F0E4
:10157000C7FC012084F8460084F83E0084F83F0050
:1015800084F8400084F8410084F8420084F8430065
:1015900084F8440084F8450084F83D00002010BD24
:1015A00008B500680C49884208D10C48016841F030
:1015B00001010160006800F001000BE00849884269
:1015C00009D10648001F016841F00401016000686C
:1015D00000F00400009008BD0000014044380240C3
:1015E000000800407047000010B50446022249B1CF
:1015F00004290ED0082913D094F84100012816D0F0
:10160000012010BD94F83E000128F9D184F83E2055
:101610000FE094F83F000128F2D184F83F2008E061
:1016200094F840000128EBD184F8402001E084F8D0
:1016300041200122206800F0AFFC12492068884256
:1016400003D1426C42F400424264206888420ED0CA
:10165000B0F1804F0BD00C49884208D00B4988422A
:1016600005D00B49884202D00A49884204D18168DA
:1016700001F00701062903D0016841F00101016072
:10168000002010BD000001400004004000080040A0
:10169000000C00400040014030B504460D46006893
:1016A000002200F079FC174B41F2111120688A10DA
:1016B000984209D1036A0B4206D1036A134203D14F
:1016C000436C23F4004343642068036A0B4206D151
:1016D000016A114203D1016821F00101016001207A
:1016E0003DB1042D08D0082D09D084F84100002018
:1016F00030BD84F83E00FAE784F83F00F7E784F84D
:101700004000F4E70000014070B5006823498842BA
:101710003CD0B0F1804F39D02149224C88421CD1B5
:101720006068032832D1E069002803DABDE8704020
:1017300000F0FCBD802000F055F8202000F0B6F845
:10174000202000F0B3F8802000F04CF8E069411E42
:10175000E161BDE8704000F010B91349884215D12D
:101760006068042812D1206A00284FF0C0000ED013
:1017700000F038F80025202000F098F86D1C102D9E
:10178000F9DBC02000F02EF80020206270BD00F0D0
:1017900029F800F0DDF80120F7E7000000480140DB
:1017A0000004004000000020000C00407047FEE7ED
:1017B00010B5802000F016F80024202000F076F804
:1017C000641C102CF9DBC02000F00CF80024202051
:1017D00000F06CF8641C102CF9DBBDE81040802090
:1017E000AFF3008070B5284D044600F001020121DE
:1017F0002846FEF7CCFF04F0020202212846FEF73D
:10180000C6FF04F0040204212846FEF7C0FF04F0DE
:10181000080208212846FEF7BAFF04F01002102142
:101820002846FEF7B4FF04F0200220212846FEF7E8
:10183000AEFF04F0400240212846FEF7A8FF04F066
:10184000800280212846FEF7A2FF002229152846A3
:10185000FEF79DFF002269152846FEF798FF01223A
:10186000160231462846FEF792FF002231462846EE
:10187000FEF78DFF042C01D2022000E00120BDE81C
:101880007040FEF7E1BD00000000024010B53820B6
:10189000FFF7A8FF0620FFF7A5FF0820FFF7A2FF2C
:1018A000BDE810400C20FFF79DBF000070B5274D2C
:1018B000044600F0010201212846FEF768FF04F00B
:1018C000020202212846FEF762FF04F0040204210E
:1018D0002846FEF75CFF04F0080208212846FEF7C0
:1018E00056FF04F0100210212846FEF750FF04F0C6
:1018F000200220212846FEF74AFF04F04002402142
:101900002846FEF744FF04F0800280212846FEF7B7
:101910003EFF012291022846FEF739FF0022691599
:101920002846FEF734FF0122140221462846FEF71E
:101930002EFF002221462846FEF729FF0024002022
:10194000FEF782FD641C112CF9DB70BD0000024023
:1019500070B5044D0024285DFFF7A8FF641C102C0F
:10196000F9DB70BD9C01002010B50120FFF73AFFA4
:10197000BDE810403820FFF735BFFEB5040003D5A1
:1019800044424D20FFF792FF1CB100256E460A220B
:101990000DE03020FFF78AFFFEBD94FBF2F002FB62
:1019A000104001F091FC94FBF2F470556D1C002C7A
:1019B000F3DC03E06D1E705DFFF778FF002DF9DAB0
:1019C000FEBD0000C2B24FF400710148FEF7DFBE59
:1019D00000040240C2B24FF400710148FEF7D7BEC6
:1019E00000080240C2B24FF480710148FEF7CFBE3A
:1019F00000080240C2B280210148FEF7C8BE0000C4
:101A0000000402402DE9F04F87B014216846FEF72C
:101A1000A8FC4F480024016841F0040101600168FE
:101A200001F004010591016841F0010101600168C4
:101A300001F001010591016841F0020101600068B7
:101A4000DFF810B100F002000590002240F20731EB
:101A50005846FEF79CFEDFF80091002240F2FF712D
:101A60004846FEF794FEDFF8F4A047F2F86800223B
:101A700041465046FEF78BFE072701250097CDE92A
:101A80000154694658460394FEF78CFDCDE9025493
:101A90000095694648460195FEF784FD40F2FE70C8
:101AA000022603948DE8610069464846FEF77AFDF8
:101AB000F0208DE8510069465846FEF773FD4FF45B
:101AC00088100097CDE9010669465046FEF76AFD89
:101AD000CDF80080CDE90154694650460394FEF7E5
:101AE00061FD4FF4407003948DE8610069465846EB
:101AF000FEF758FDA80200904FF44410CDE901060E
:101B000069465846FEF74EFD002202210620FEF7E8
:101B1000CFFE0620FEF7BEFE002202210720FEF7C0
:101B2000C7FE0720FEF7B6FE002202210820FEF7BE
:101B3000BFFE0820FEF7AEFE002211462820FEF769
:101B4000B7FE2820FEF7A6FE07B0BDE8F08F000024
:101B50003038024000080240000002400004024009
:101B600010B592B000240F941C2108A81094FEF721
:101B7000F8FB20216846FEF7F4FB21481F4901606D
:101B800040F2DB51C0E901144FF47A71C0E903144B
:101B90008021C0E90541FFF7D6FC08B172B6FEE727
:101BA0000F940FA916481094FFF776F908B172B692
:101BB000FEE7602008903720CDE909040C940D94CD
:101BC0000C2208A90E480E94FFF757FC08B172B614
:101BD000FEE700944FF40050CDE9044002940194D4
:101BE0000394694606480794FFF72CF908B172B6CA
:101BF000FEE70348FFF7FEFB12B010BD00000140F6
:101C00003400002070B58AB000242548049405945F
:101C100006940794089409940094019402944FF058
:101C20008045039443F67F610560C0E901141D49B6
:101C3000C0E9031480218161FFF76CF908B172B625
:101C4000FEE74FF48050049004A91548FFF7F2F91D
:101C500008B172B6FEE71248FFF7EAFA08B172B6A9
:101C6000FEE7089408A90E480994FFF715F908B192
:101C700072B6FEE70A2000900126CDE90164002239
:101C8000694607480394FFF744FA08B172B6FEE7C5
:101C90004120A8610B2028622E600AB070BD0000B0
:101CA0007C0000203F420F0030B587B000251B4C60
:101CB00000950195029503950495174805952060B8
:101CC00040F2C520C4E901054FF47A70C4E9030568
:101CD0002046A561FFF71EF908B172B6FEE74FF482
:101CE0008050009069460D48FFF7A4F908B172B61C
:101CF000FEE7049504A909480595FFF7CDF808B15A
:101D000072B6FEE72168012008602068C16841F0D2
:101D10000101C16007B030BD00040040C4000020D4
:101D200010B58AB0002407941C2168460894FEF779
:101D300018FB17481549016040F2DB51C0E9011456
:101D40004FF47A71C0E903148461FFF7FCFB08B11A
:101D500072B6FEE7079407A90D480894FFF79CF8B0
:101D600008B172B6FEE7602000903720CDE901048B
:101D70000822694606480494FFF77FFB08B172B653
:101D8000FEE70348FFF736FB0AB010BD000800402D
:101D90000C01002030B587B000251B4C0095019543
:101DA00002950395049517480595206040F23F6021
:101DB000C4E901054FF4FA70C4E903052046A561A2
:101DC000FFF7A8F808B172B6FEE74FF48050009014
:101DD00069460D48FFF72EF908B172B6FEE7049583
:101DE00004A909480595FFF757F808B172B6FEE750
:101DF0002168012008602068C16841F00101C160CC
:101E000007B030BD000C004054010020FEE7000088
:101E100010B51D20FEF72DFD3220FEF72AFD01F042
:101E2000B1FA0020054920220A54401C1028FBDB8F
:101E3000FFF72CFDBDE81040FFF796BD9C01002088
:101E4000FEE770477047FEF7ADBC000010B592B0DA
:101E500030216846FEF785FA14210CA8FEF781FAB6
:101E600018480024016841F080510160006800F0CA
:101E7000805011901448016821F4404141F4004120
:101E800001600068069400F4404011900220009028
:101E900001200390102004906846FEF707FE08B169
:101EA00072B6FEE70F20CDE90C040E940F940021CA
:101EB0000CA81094FEF72EFD002801D072B6FEE7A4
:101EC00012B010BD40380240007000400248016866
:101ED00041F470010160704788ED00E00148FFF7B0
:101EE000D5B900007C0000200148FFF7CFB9000001
:101EF000C40000200148FFF7C9B9000054010020C8
:101F0000F0B502681D4B1E4C9F031E4D1E4E98429D
:101F100007D0B84205D0A04203D0A84201D0B042B9
:101F200004D122F0700C4A6842EA0C02984210D0A8
:101F3000B8420ED0A0420CD0A8420AD0B04208D07D
:101F4000124CA04205D0124CA04202D0114CA0422B
:101F500003D122F44074CA6822434C6922F0800203
:101F6000224302608A68C2620A688262984201D192
:101F70000969016301214161F0BD000000000140D9
:101F80000004004000080040000C004000400140F8
:101F9000004401400048014010B501F01F03012139
:101FA000046A99408C430462016A9A4011430162B9
:101FB00010BD10B5846842EA032224F47F440A432A
:101FC0002243826010BD826822F070020A4342F010
:101FD000070181607047000030B5026A22F00102FB
:101FE0000262026A4368846924F073050C682C431A
:101FF00022F002058A682A430A4DA8420BD122F03A
:102000000805CA6823F440732A434D6922F004028C
:102010001D438B692B4343608461496841630262BD
:1020200030BD00000000014030B5026A22F010020D
:102030000262026A436884690D6824F4E64444EA53
:1020400005248D6822F0200242EA05120B4DA842B9
:102050000ED1CD6822F0800242EA05124D6923F4C8
:10206000406343EA85038D6922F0400243EA850319
:102070004360846149688163026230BD00000140B1
:1020800030B5026A22F480720262036A4268C4694F
:1020900023F4007324F073050C682C438D6843EA25
:1020A00005230C4DA8420ED1CD6823F4006343EA0A
:1020B00005234D6922F4405242EA05128D6923F44A
:1020C000806342EA05124260C4614968C1630362E9
:1020D00030BD00000000014030B5026A22F4805299
:1020E0000262046A4268C3690D6823F4E64343EA66
:1020F00005238D6824F4005444EA0534064DA842B3
:1021000004D14D6922F4804242EA85124260C361E3
:1021100049680164046230BD0000014010B5036AE3
:10212000046A24F001040462846924F0F00444EA9F
:10213000021423F00A020A438461026210BD000007
:1021400070B5046A24F0010404628469056A124EC1
:10215000B0420ED0B0F1804F0BD0104EB04208D03C
:102160000F4EB04205D00F4EB04202D00E4EB042DC
:1021700003D124F00304144301E044F001041A07DE
:1021800024F0F00444EA126225F00A0301F00A0187
:1021900019438261016270BD0000014000040040EB
:1021A00000080040000C00400040014010B5036AE8
:1021B00023F0100303628369046A23F4704343EA43
:1021C000023224F0A00343EA01118261016210BDD2
:1021D00030B5046A24F0100404628469056A24F4AA
:1021E000407444EA022222F470444FF6FF7202EA7D
:1021F00003322243A02425F0A00304EA011119436D
:102200008261016230BDFEE70907090E002804DB88
:1022100000F1E02080F80014704700F00F0000F19A
:10222000E02080F8141D70472DE9F0473D4F3868D5
:10223000082875D13C4C2078612620254FF06D0888
:102240004FF00109392814D16078382811D1A078CD
:1022500032280ED1E07834280BD12079332808D1E8
:102260006079302805D1A079332802D1E07935286A
:102270003AD02078392853D16078382850D1A078C6
:1022800032284DD1E07834284AD12079332847D1FB
:102290006079302844D1A079352841D1E0793028BF
:1022A0003ED1C020FFF79EFA502020706670722049
:1022B000A0707321E170267165714D21A1716F21AC
:1022C000E17168222272667284F80A80E6726422E2
:1022D000227370226273A17384F80F00C7F8049010
:1022E000BDE8F047FFF734BBC020FFF77BFA46207C
:1022F000207066707420A0706520E07084F80480FF
:102300006071A5715321E1712072692060726621AC
:10231000A172E07225736573A573E573DEE7FFE7CD
:10232000BDE8F087000000209C0100202DE9F0416D
:10233000234C042060601D20FEF79BFAA068452610
:10234000522720251F4C03284FF0C00018DAFFF752
:1023500049FA57202070492060704E20A070E0702C
:1023600026716771A571E57125726572A572E572B6
:1023700025736573A573E5730C21A4F5B47017E09C
:10238000FFF730FA4C2020704F2060705320A0706F
:10239000E67027716571A571E57125726572A57288
:1023A000E57225736573A573E573064808219038B7
:1023B000FFF71AF9BDE8F0413220FEF76BBA0000D2
:1023C000000000209C01002010B51D4C00220821B7
:1023D0002046FEF7DCF901212046FEF7D3F910B3C1
:1023E000002210212046FEF7D2F901212046FEF7F7
:1023F000C9F9E0B1002220212046FEF7C8F90121E9
:102400002046FEF7BFF9B0B1002240212046FEF77A
:10241000BEF901212046FEF7B5F9002802D100F0EF
:10242000B1FF2A2010BD00F0ADFF312010BD00F03B
:10243000A9FF342010BD00F0A5FF372010BD00001B
:102440000004024010B51D4C002208212046FEF772
:102450009EF902212046FEF795F910B300221021C3
:102460002046FEF794F902212046FEF78BF9E0B1F1
:10247000002220212046FEF78AF902212046FEF79D
:1024800081F9B0B1002240212046FEF780F90221F7
:102490002046FEF777F9002802D100F073FF3020C4
:1024A00010BD00F06FFF322010BD00F06BFF352033
:1024B00010BD00F067FF382010BD0000000402408E
:1024C00010B51D4C002208212046FEF760F90421BA
:1024D0002046FEF757F910B3002210212046FEF7E0
:1024E00056F904212046FEF74DF9E0B100222021E3
:1024F0002046FEF74CF904212046FEF743F9B0B11F
:10250000002240212046FEF742F904212046FEF732
:1025100039F9002802D100F035FF232010BD00F06A
:1025200031FF332010BD00F02DFF362010BD00F02C
:1025300029FF392010BD0000000402402DE9FC5F96
:102540000020DFF8F483FD4CDFF8F4938246042585
:10255000834600900020FFF735FA0020FFF73AFA93
:102560000020FFF73FFA0020FFF744FA00988007A9
:1025700008D000982040012808D002280AD003285B
:102580000CD00EE00120FFF71DFA0AE00120FFF752
:1025900021FA06E00120FFF725FA02E00120FFF70B
:1025A00029FAFEF7F9F898F8006007469636CDF854
:1025B00004B078E0D9F80410484603297ED1C069F8
:1025C000002801DC4846CCE01021DE48FEF7DAF8AE
:1025D000012812D04021DB48FEF7D4F8012822D090
:1025E0008021D848FEF7CEF8012831D02021D548E7
:1025F000FEF7C8F8012856D140E000982040032893
:1026000008D0D9F80810491CC9F80810D9F80800F2
:1026100000F002FF012001901021CA48FEF7B2F835
:102620000128F9D03FE00098800708D0D9F80810B9
:10263000491CC9F80810D9F8080000F0EDFE012087
:1026400001904021BF48FEF79DF80128F9D02AE00B
:1026500000982040012808D0D9F80810491CC9F872
:102660000810D9F8080000F0D7FE01200190802161
:10267000B448FEF787F80128F9D014E0009820400C
:10268000022808D0D9F80810491CC9F80810D9F850
:10269000080000F0C1FE012001902021A948FEF7AA
:1026A00071F80128F9D0FEF777F8C01BB04281D34A
:1026B0000098401C0090019830B900E0BFE0D9F8C4
:1026C0000800401CC9F808004E46D9F8080000F080
:1026D000A3FEB068032801DB4846E0E00AF1010AE6
:1026E000BAF1030FFFF636AF4FF0000BC146B2460A
:1026F0000020FFF767F90020FFF76CF90020FFF7D3
:1027000071F90020FFF776F90098800708D000984B
:102710002040012808D002280AD003280CD00EE05F
:102720000120FFF74FF90AE00120FFF753F906E017
:102730000120FFF757F902E00120FFF75BF9FEF7F0
:102740002BF899F8007006464FF0000864378CE0CB
:10275000DAF804105046032971D1C069002814DC4E
:1027600050464560FFF7E2FD0020FFF72BF90020FF
:10277000FFF730F90020FFF735F90020FFF73AF9AD
:10278000BDE8FC5F1D20FEF774B810216D48FDF711
:10279000F9FF012812D040216A48FDF7F3FF012814
:1027A00022D080216748FDF7EDFF012831D020219C
:1027B0006448FDF7E7FF012857D141E00098204029
:1027C000032808D0DAF80810491CCAF80810DAF80B
:1027D000080000F021FE4FF0010810215948FDF7D4
:1027E000D1FF0128F9D040E00098800708D0DAF83E
:1027F0000810491CCAF80810DAF8080000F00CFEAE
:102800004FF0010840214F48FDF7BCFF0128F9D0E7
:102810002BE000982040012808D0DAF80800401C7E
:10282000CAF80800DAF8080000F0F6FD4FF00108D9
:1028300080214448FDF7A6FF0128F9D015E007E103
:1028400000982040022808D0DAF80810491CCAF87D
:102850000810DAF8080000F0DFFD4FF00108202131
:102860003848FDF78FFF0128F9D0FDF795FF801B51
:10287000B842FFF46DAF0098401C0090B8F1000F13
:1028800004D1DAF80810491CCAF808105646DAF8DC
:10289000080000F0C1FDB068032814DB5046456015
:1028A0000020FFF78FF80020FFF794F80020FFF7D3
:1028B00099F80020FFF79EF81D20FDF7DAFFBDE82C
:1028C000FC5FFFF733BD0BF1010BBBF1030FFFF60C
:1028D0000FAF4FF0000BB2460020FFF773F8002057
:1028E000FFF778F80020FFF77DF80020FFF782F867
:1028F0000098800708D000982040012808D00228BE
:102900000AD003280CD00EE00120FFF75BF80AE0A4
:102910000120FFF75FF806E00120FFF763F802E00F
:102920000120FFF767F8FDF737FF99F800600746C9
:102930004FF000085F367FE0240000200300008095
:102940000000002000080240DAF804105046032975
:102950007ED1C06900287FF703AF1021F848FDF74A
:1029600011FF012812D04021F548FDF70BFF012887
:1029700022D08021F248FDF705FF012831D0202127
:10298000EF48FDF7FFFE012856D140E000982040B7
:10299000032808D0DAF80810491CCAF80810DAF839
:1029A000080000F039FD4FF001081021E448FDF760
:1029B000E9FE0128F9D03FE00098800708D0DAF856
:1029C0000810491CCAF80810DAF8080000F024FDC5
:1029D0004FF001084021DA48FDF7D4FE0128F9D074
:1029E0002AE000982040012808D0DAF80810491C95
:1029F000CAF80810DAF8080000F00EFD4FF00108E0
:102A00008021CF48FDF7BEFE0128F9D014E00098E0
:102A10002040022808D0DAF80810491CCAF808102B
:102A2000DAF8080000F0F8FC4FF001082021C44853
:102A3000FDF7A8FE0128F9D0FDF7AEFEC01BB0429D
:102A400082D30098401C0090B8F1000F06D100E03E
:102A5000CAE0DAF80810491CCAF808105646DAF835
:102A6000080000F0D9FCB0680328BFF617AF0BF1DF
:102A7000010BBBF10A0FFFF62FAF4FF0000BB24670
:102A80000020FEF79FFF0020FEF7A4FF0020FEF7C6
:102A9000A9FF0020FEF7AEFF0098800708D000983D
:102AA0002040012808D002280AD003280CD00EE0CC
:102AB0000120FEF787FF0AE00120FEF78BFF06E00A
:102AC0000120FEF78FFF02E00120FEF793FFFDF7E4
:102AD00063FE99F8006007464FF000085A3677E029
:102AE000DAF80410504603297ED1C06900287FF728
:102AF00037AE10219248FDF745FE012812D0402143
:102B00008F48FDF73FFE012822D080218C48FDF739
:102B100039FE012831D020218948FDF733FE0128F4
:102B200056D140E000982040032808D0DAF8080089
:102B3000401CCAF80800DAF8080000F06DFC4FF0FD
:102B4000010810217E48FDF71DFE0128F9D03FE065
:102B50000098800708D0DAF80810491CCAF8081055
:102B6000DAF8080000F058FC4FF0010840217448E2
:102B7000FDF708FE0128F9D02AE00098204001283E
:102B800008D0DAF80810491CCAF80810DAF808006A
:102B900000F042FC4FF0010880216948FDF7F2FD8A
:102BA0000128F9D014E000982040022808D0DAF873
:102BB0000810491CCAF80810DAF8080000F02CFCCC
:102BC0004FF0010820215E48FDF7DCFD0128F9D017
:102BD000FDF7E2FDC01BB04282D30098401C00907C
:102BE000B8F1000F06D100E0A9E0DAF80800401CB7
:102BF000CAF808005646DAF8080000F00DFCB06884
:102C00000328BFF64BAE0BF1010BBBF10A0FFFF629
:102C100037AF4FF0000BB2460020FEF7D3FE002086
:102C2000FEF7D8FE0020FEF7DDFE0020FEF7E2FEF4
:102C30000098800708D000982040012808D002287A
:102C40000AD003280CD00EE00120FEF7BBFE0AE0FC
:102C50000120FEF7BFFE06E00120FEF7C3FE02E002
:102C60000120FEF7C7FEFDF797FD99F800600746C3
:102C70004FF0000855367AE0DAF804105046032980
:102C80005DD1C06900287FF76BAD10212C48FDF79E
:102C900079FD012812D040212948FDF773FD012854
:102CA00022D080212648FDF76DFD012831D020215A
:102CB0002348FDF767FD012859D143E000982040E3
:102CC000032808D0DAF80810491CCAF80810DAF806
:102CD000080000F0A1FB4FF0010810211848FDF793
:102CE00051FD0128F9D042E00098800708D0DAF8B9
:102CF0000810491CCAF80810DAF8080000F08CFB2C
:102D00004FF0010840210E48FDF73CFD0128F9D0A5
:102D10002DE000982040012808D0DAF80800401C77
:102D2000CAF80800DAF8080000F076FB4FF0010856
:102D300080210348FDF726FD0128F9D017E0EDE0DA
:102D40000008024000982040022808D0DAF8080065
:102D5000401CCAF80800DAF8080000F05DFB4FF0EC
:102D600001082021F848FDF70DFD0128F9D0FDF7F5
:102D700013FDC01BB042FFF47FAF0098401C0090D1
:102D8000B8F1000F04D1DAF80810491CCAF808108D
:102D90005646DAF8080000F03FFBB0680328BFF69B
:102DA0007DAD0BF1010BBBF10A0FFFF635AF4FF014
:102DB000000BB2460020FEF705FE0020FEF70AFEDB
:102DC0000020FEF70FFE0020FEF714FE009880079B
:102DD00008D000982040012808D002280AD00328F3
:102DE0000CD00EE00120FEF7EDFD0AE00120FEF719
:102DF000F1FD06E00120FEF7F5FD02E00120FEF7FF
:102E0000F9FDFDF7C9FC99F8006007464FF000088E
:102E1000503677E0DAF80410504603297ED1C069B5
:102E200000287FF79DAC1021C748FDF7ABFC0128B7
:102E300012D04021C448FDF7A5FC012822D08021F2
:102E4000C148FDF79FFC012831D02021BE48FDF785
:102E500099FC012856D140E000982040032808D072
:102E6000DAF80810491CCAF80810DAF8080000F06F
:102E7000D3FA4FF001081021B348FDF783FC012875
:102E8000F9D03FE00098800708D0DAF80810491C14
:102E9000CAF80810DAF8080000F0BEFA4FF001088E
:102EA0004021A948FDF76EFC0128F9D02AE00098DE
:102EB0002040012808D0DAF80810491CCAF8081088
:102EC000DAF8080000F0A8FA4FF0010880219E48C7
:102ED000FDF758FC0128F9D014E0009820400228A2
:102EE00008D0DAF80810491CCAF80810DAF8080007
:102EF00000F092FA4FF0010820219348FDF742FCC0
:102F00000128F9D0FDF748FCC01BB04282D30098DD
:102F1000401C0090B8F1000F06D100E0CAE0DAF8DA
:102F20000810491CCAF808105646DAF8080000F0E4
:102F300073FAB0680328BFF6B1AC0BF1010BBBF11B
:102F40000A0FFFF637AF4FF0000BB2460020FEF736
:102F500039FD0020FEF73EFD0020FEF743FD002076
:102F6000FEF748FD0098800708D00098204001280F
:102F700008D002280AD003280CD00EE00120FEF76A
:102F800021FD0AE00120FEF725FD06E00120FEF705
:102F900029FD02E00120FEF72DFDFDF7FDFB99F86C
:102FA000006007464FF000084B3677E0DAF804106F
:102FB000504603297ED1C06900287FF7D1AB10218C
:102FC0006148FDF7DFFB012812D040215E48FDF784
:102FD000D9FB012822D080215B48FDF7D3FB0128D3
:102FE00031D020215848FDF7CDFB012856D140E0D3
:102FF00000982040032808D0DAF80800401CCAF8DE
:103000000800DAF8080000F007FA4FF00108102174
:103010004D48FDF7B7FB0128F9D03FE00098800745
:1030200008D0DAF80800401CCAF80800DAF80800EE
:1030300000F0F2F94FF0010840214348FDF7A2FBF0
:103040000128F9D02AE000982040012808D0DAF8B9
:103050000810491CCAF80810DAF8080000F0DCF97A
:103060004FF0010880213848FDF78CFB0128F9D08A
:1030700014E000982040022808D0DAF80810491C13
:10308000CAF80810DAF8080000F0C6F94FF0010895
:1030900020212D48FDF776FB0128F9D0FDF77CFBB8
:1030A000C01BB04282D30098401C0090B8F1000FC2
:1030B00006D100E04FE0DAF80810491CCAF8081001
:1030C0005646DAF8080000F0A7F9B0680328BFF602
:1030D000E5AB0BF1010BBBF10A0FFFF637AFCB46A7
:1030E0004FF0000AB1460020FEF76CFC0020FEF70E
:1030F00071FC0020FEF776FC0020FEF77BFC0098B8
:10310000800708D000982040012808D002280AD063
:1031100003280CD00EE00120FEF754FC0AE0012049
:10312000FEF758FC06E00120FEF75CFC02E00120FF
:10313000FEF760FCFDF730FB9BF8006007464FF0A0
:103140000008463688E0000000080240D9F8041064
:10315000484603290DD00020FEF734FC0020FEF77E
:1031600039FC0020FEF73EFCBDE8FC5F0020FEF7C6
:1031700041BCC06900287FF725AA10215148FDF7FE
:1031800001FB012812D040214E48FDF7FBFA01282F
:1031900022D080214B48FDF7F5FA012831D02021BB
:1031A0004848FDF7EFFA012856D140E0009820404A
:1031B000032808D0D9F80810491CC9F80810D9F814
:1031C000080000F029F94FF0010810213D48FDF7F3
:1031D000D9FA0128F9D03FE00098800708D0D9F843
:1031E0000810491CC9F80810D9F8080000F014F9B3
:1031F0004FF0010840213348FDF7C4FA0128F9D007
:103200002AE000982040012808D0D9F80810491C6D
:10321000C9F80810D9F8080000F0FEF84FF00108CE
:1032200080212848FDF7AEFA0128F9D014E0009873
:103230002040022808D0D9F80810491CC9F8081005
:10324000D9F8080000F0E8F84FF0010820211D48E7
:10325000FDF798FA0128F9D0FDF79EFAC01BB0429D
:10326000FFF474AF0098401C0090B8F1000F04D137
:10327000D9F80810491CC9F808104E46D9F80800BA
:1032800000F0CAF8B0680328BFF626AA0AF1010ABE
:10329000BAF10A0FFFF627AF0020FEF793FB0020DC
:1032A000FEF798FB0020FEF79DFB0020FEF7A2FB37
:1032B0001D20FDF7DEFAFFF739F8C9F80450BDE824
:1032C000FC9F0000000802400A281AD2DFE800F044
:1032D0000507090B0D0F111315173020704731200A
:1032E00070473220704733207047342070473520B4
:1032F0007047362070473720704738207047392094
:1033000070472620704710B57820FDF79DF8C02043
:10331000FEF768FA00242020FEF7C8FA641C102C7F
:10332000F9DB7820FDF790F8C020FEF75BFABDE8E6
:103330001040FEF70DBB000010B53220FDF799FAE2
:103340000C210E48FEF7A8F90C480821D830FEF7EA
:10335000A3F90B4C0020A060A06800F05DF8FEF718
:1033600027FA3C20E061E069FEF707FB032060607C
:10337000BDE810401D20FDF78DBA0000340000208C
:103380000000002010B50B4C012208212046FDF75B
:10339000FEF9012210212046FDF7F9F90122202132
:1033A0002046FDF7F4F920460122BDE810404021F7
:1033B000FDF7EDB9000402400C211548FEF76CF949
:1033C00013480821D830FEF767F9FDF7F3F9FEF747
:1033D0003DFDFEF717FBFEF715FCFEF765FCFEF75B
:1033E000BFFBFEF79DFCFEF7D5FCFEF711FD094C77
:1033F0006068012801D1FFF786FF6068022801D1CB
:10340000FFF79AFF60680328F2D1FFF797F8EFE71C
:1034100034000020000000202DE9F047754D764C67
:103420002E15A714401C4FF400584FF480490B2868
:103430007ED2DFE800F0061232344A6F828F96B1F6
:10344000CC00002201212846FDF7A1F9002202212B
:103450002846FDF79CF900228EE0012211462846FD
:10346000FDF795F9012202212846FDF790F9012286
:1034700004212846FDF78BF9012231462046FDF74D
:1034800086F9012239462046FDF781F9012241469D
:103490002046FDF77CF9002236E0002262E001229E
:1034A00011462846FDF773F9012202212846FDF74F
:1034B0006EF9002204212846FDF769F90122314600
:1034C0002046FDF764F9012214E001221146284646
:1034D000FDF75DF9012202212846FDF758F9012286
:1034E00004212846FDF753F9012231462046FDF715
:1034F0004EF9002239462046FDF749F9002241469F
:103500002046FDF744F9012249462046BDE8F04730
:10351000FDF73DB9002201212846FDF738F90122C7
:1035200002212846FDF733F901220421284600E054
:103530005EE0FDF72CF9002206E001221146284644
:10354000FDF725F9002248E031462046FDF71FF936
:10355000002236E0012211462846FDF718F9002224
:1035600020E0012201212846FDF711F90122022164
:103570002846FDF70CF9012204212846FDF707F93A
:10358000002231462046FDF702F900223946204646
:10359000FDF7FDF800227AE7012211462846FDF7E3
:1035A000F6F8012202212846FDF7F1F80122042154
:1035B0002846FDF7ECF8012231462046FDF7E7F8F2
:1035C000012239462046FDF7E2F8012297E7012261
:1035D00011462846FDF7DBF8012202212846FDF7B7
:1035E000D6F8012204212846FDF7D1F80122ABE7E5
:1035F000BDE8F08700080240000402404FF0407030
:10360000E1EE100A70470000000000000000010217
:1036100003040607080900003836000800000020EF
:1036200034000000D00100086C360008340000208F
:10363000DC070000EC0100080000000000000000B2
:1036400000000000FFFFFFFFFFFFFFFF0000000082
:10365000000000003C00000000000000010000002D
:0C36600010000000000000000024F40036
:040000050800019559
:00000001FF
